:020000040800F2
:10000000F84F002005010008090100080B01000855
:100010000D0100080F010008110100080000000098
:1000200000000000000000000000000013010008B4
:100030001501000800000000170100081901000860
:100040007D2200081B0100081B0100081B0100089D
:100050001B0100081B010008F91F00081B01000814
:100060001B0100081B0100081B0100081B01000800
:100070001B0100081B0100081B0100081B010008F0
:100080001B0100081B0100081B0100081B010008E0
:100090001B0100081B0100081B0100081B010008D0
:1000A0001B0100081B0100081B0100081B010008C0
:1000B00081610008DD2200081B0100081B01000807
:1000C0001B0100081B0100081B0100081B010008A0
:1000D0001B010008F71D00081B0100081B01000898
:1000E000DB2000081B0100081B010008DFF80CD012
:1000F00007F0AAF900480047B5060008F84F0020AD
:1001000030BF000005480047FEE7FEE7FEE7FEE7D8
:10011000FEE7FEE7FEE7FEE7FEE7FEE7ED0000088C
:1001200010B54FF47A7001F09BFC4FF47A7001F037
:1001300097FC4FF47A7001F093FC4FF47A7001F061
:100140008FFC4FF47A7001F08BFC4FF47A7001F061
:1001500087FC10BD2DE9F04106460F46904600246D
:1001600010E0002507E056F82400415DFFA007F0ED
:1001700025FA681C85B24545F5DBFDA007F01EFA9F
:10018000601C84B2BC42ECDBBDE8F0812DE9FF4F7E
:1001900081B00646884691469B46DDF83CA04FF666
:1001A000FF73009340F23F13EF220021084604F052
:1001B00033FF002002F098FABAF1010F34D1002485
:1001C0002FE00E98204481B2584607F07DF902F0E6
:1001D0008FF9002521E056F82400405DC710BF01CB
:1001E00056F82400405D47EAA0077F0156F8240036
:1001F000405D47EAE0074FF48070DE490861400047
:100200004861DD4807604FF08000486108614FF4A5
:100210000070086105F1010085B24D45DBDB601C13
:1002200084B24445CDDB56E0BAF1020F27D1002459
:1002300022E000251CE056F82400405DCF490978F3
:10024000884202DD4FF6FF7700E000274FF4807010
:10025000C849086140004861C74807604FF0800006
:10026000486108614FF40070086105F1010085B232
:100270004D45E0DB601C84B24445DADB2BE0BAF18B
:10028000030F28D1002424E000251EE056F82400A6
:10029000405D012802D14FF6FF7704E056F82400B4
:1002A000405D00B900274FF48070B24908614000FA
:1002B0004861B14807604FF08000486108614FF421
:1002C0000070086105F1010085B24D45DEDB601C60
:1002D00084B24445D8DB05B0BDE8F08F2DE9F04F7E
:1002E00087B00D4616461F46109C4FF0000AD046B8
:1002F000C14600200590069003900490834602902A
:10030000E004010C102001F00DFB8046204600F0B7
:100310005BFA81469948037800933B46324629466A
:10032000284600F092FF3B4632462946284600F018
:1003300074FF03237722CDE9002359233A4631463F
:100340002846FFF723FF3A4631462846FFF702FFCB
:10035000E004020C1021404601F009FB484600F081
:1003600066FA002007B0BDE8F08F2DE9F74F83460D
:100370008348007802287ED1042002F0B5F90021DC
:10038000084607F0A1F802F0B3F800207D490860A4
:100390007D49C1F890017D4908604FF00100086077
:1003A0004FF0000008604FF001007949086077497C
:1003B00008604FF0000755E000264FE04FF088300E
:1003C000744908604FF000006F49C1F88401724819
:1003D0000068C4B24FF00100C1F8840125464FEA1D
:1003E00004244FF00000C1F884016C48D0F8080CD8
:1003F000C0B240EA04044FF00100644908604FF0C5
:1004000033306649C1F8000C04F478484FEAE42917
:100410004FEA641404F4FC6A08EB0900504484B207
:100420004FF48070534908614FF40070486152489E
:1004300004604FF08000486108614FF4007008616B
:10044000A6F580703F3808D00198B6FBF0F05BF855
:1004500020100298B7FBF0F00D54761CB6F5A07F83
:10046000ACD37F1CF02FA7D30120464908604FF082
:100470000000454900E017E0C1F884014FF0010099
:10048000424908604FF40040454908604FF00000C1
:100490003B4908704348007800F101004149087069
:1004A0004FF0000002F020F9BDE8FE8F1CB50920D6
:1004B00001F02FFC4FF41651482001F0D6FC4820E3
:1004C00001F0B8FA05F05AF801F056FD02F02CFBE5
:1004D00035488088A0F5D041043905D1F020324953
:1004E00008804FF4A0704880304841684820884711
:1004F0004FF478402E4908802EA31022CDE9002326
:10050000C8231A463221282004F0FBFF30A3102212
:10051000CDE90023C8231A464621282004F0F1FF24
:1005200031A31022CDE90023C8231A465A212820DE
:1005300004F0E7FF31A31022CDE90023C8231A46B7
:100540006E21282004F0DDFF2FA31022CDE9002327
:10055000C8231A469621282004F0D3FF30A3102286
:10056000CDE90023C8231A46BE2161E0256420009E
:100570000D0A0000001001400C0C0140000000209A
:1005800010000020AC0121420000214284012142E0
:1005900090012142000C0140080C01400000014084
:1005A00014040140120000204802002088000020AE
:1005B00014000020706C6174666F726D3A4D696E44
:1005C000692053544D33322056322E300000000043
:1005D0006368697020747970653A53544D333246BC
:1005E0003130335242543600436F64652062793AA9
:1005F000526F6E6766616E674C69750032303134D8
:100600002F30322F323300003E3E4E756D626572E0
:10061000205265636F676E697A653C3C000000009C
:100620004F563736373020496E69742E2E2E000013
:10063000282004F066FF18E04EA31022CDE9002325
:10064000C8231A46D221282004F05BFFC82001F0FD
:1006500007FA4FF6FF730093F623EF22E6212820D6
:1006600004F0DAFCC82001F0FBF904F087FF002851
:10067000E2D144A31022CDE90023C8231A46D22197
:10068000282004F03EFF40F2DC5001F0E9F941F689
:100690001F4142F2107001F032FE01F042FD4FF4B2
:1006A000A073F022AE210A2005F0B7F800203949E6
:1006B00008601CBD1CB500250024002600BFFFF704
:1006C000F5FE0028FBD153E03C21502001F02AF92F
:1006D00004460D21052001F025F906461DE00422FF
:1006E00011462046FFF741FE2B480078854209D08D
:1006F000294805782948006808B9012000E0002051
:10070000264908602648006838B94FF47A7001F02D
:10071000A7F92348006800B900E0E0E700BF21A383
:100720001022CDE90023C8231A463221282004F0E4
:10073000E8FE3C225021204600F0A8FD40101C4954
:100740000870084601781BA006F038FF05230093C7
:100750003C23502221463046FFF7C0FD3C22502169
:10076000204601F004F90D220521304601F0FFF882
:10077000AAE700004F5637363730204572726F7245
:10078000212100004F563736373020496E697420DA
:100790004F4B0000AC01214212000020A001214279
:1007A00034012142436F6E74696E75652E2E2E00E2
:1007B0000000002067616C6F62616C207468726574
:1007C000733A25640D0A00002DE9F0410646002722
:1007D000B8460C2007F0F0F905460446074600200D
:1007E000A0600BE00C2007F0E7F904460020A060B1
:1007F000AC60AD6808F101001FFA80F8701E80B28D
:100800000600EFD13846BDE8F08107B5034619462A
:1008100004E0DDE90102C1E9000289688868002876
:10082000F7D1DDE90102C1E9000200200EBD70B57B
:10083000044604E0A568204607F096F92C46A06817
:100840000028F7D1204607F08FF90024002070BD62
:100850007CB5054600262C46FBA006F0AFFE00BF87
:10086000E388A288CDE90023638822883146FDA071
:1008700006F0A4FE701C86B2A468002CF0D13146AC
:10088000FFA006F09BFE7CBD2DE9F04F8FB08346A4
:100890008A4691461E4600210C460D460C910D914C
:1008A0000020099080462AE000271FE05AF828001F
:1008B000C05DC8B9304606EBD671C7EB6102099935
:1008C000114489B2099106EBD671C7EB610101FBB6
:1008D00008F0089606F0A7FB22462B46CDE9060154
:1008E00006F017FA04460D46781C87B206EBD6715F
:1008F000B7EB610FDADB08F101001FFA80F8C84599
:10090000D2DB099806F0A0FB02460B46CDE90601B2
:100910002046294606F013FB04460D4600200990A8
:10092000804622E0304606EBD6714F1017E05AF8A9
:100930002800C05D88B9F11B0998084480B209906D
:10094000F11B01FB08F006F06EFBCDE90601DDE9C5
:100950000C2306F0DEF9CDE90C01781C87B2B74212
:10096000E5DB08F101001FFA80F8C845DADB0998D9
:1009700006F06AFB02460B46CDE90601DDE90C01F3
:1009800006F0DDFACDE90C0106EBD67148100896A9
:1009900006F049FBCDE9060120462946DDE90C2396
:1009A00006F056FACDE90401DDE9062306F0C7FAA0
:1009B000CDE90A014FF0000835E000272DE006EBF5
:1009C000D671A7EB6100089606F02DFBCDE900017A
:1009D000DDE90A2306F042FACDE90401404606F0BB
:1009E00033FBCDE90201DDE9042306F031FACDE95C
:1009F000060106F04AFB80B20E900E98484504DBD3
:100A000001205BF82810C85505E05AF82800C05DA1
:100A10005BF82810C855781C87B2B742CFDB08F1C5
:100A200001001FFA80F8C845C7DB0FB0BDE8F08FA2
:100A30002DE9FC43844688464FF00009CDF800902C
:100A4000CDF804901C4600261546002700201EE025
:100A5000002116E058F8209019F80190B9F1000F24
:100A60000BD1A84200DA0546B84200DD0746A14294
:100A700000DA0C46B14200DD0E4601F101091FFA11
:100A800089F19942E6DB00F101091FFA89F09042F1
:100A9000DEDBA3F10109A14511D1012E0FD1A2F195
:100AA0000109A9450BD1012F09D10124A3F10109A5
:100AB0001FFA89F60125A2F101091FFA89F7B4F19D
:100AC000010902D54FF0000901E0A4F101091FFA64
:100AD00089F9ADF80090B5F1010902D54FF0000990
:100AE00001E0A5F101091FFA89F9ADF8029006F1BC
:100AF00001091FFA89F9ADF8049007F101091FFAFD
:100B000089F9ADF80690DDF80090CCF80090DDF89A
:100B10000490CCF80490BDE8FC832DE9FF4F83B02E
:100B200082468B461F464FF00008C14601200290C6
:100B30000020009001903C462046DDE90012FFF7BE
:100B400064FE3C46ADF806B000262AE00120029083
:100B500000250FE05AF82500805D48B9002002907A
:100B6000B9F1000F03D14FF00109268000E003E046
:100B7000681C85B25D45EDDB00BF029858B1B9F144
:100B8000000F08D04FF00009701EA08008F101008E
:100B90001FFA80F8A4681098804500DB04E0701C00
:100BA00086B205988642D1DB00BF3C464FF0000874
:100BB0002CE0658826E00120029026880FE05AF894
:100BC0002500805D48B900200290B9F1000F03D1E3
:100BD0004FF00109658000E004E0701C86B2A08837
:100BE000B042ECDA00BF029850B1B9F1000F07D063
:100BF0004FF00009681EE08008F101001FFA80F83C
:100C0000681C85B2E088A842D5DAA46810988045AF
:100C1000CFDB07B0BDE8F08F2DE9FF4F95B08046E0
:100C20008946BDF88A001390BDF888001290BDF87F
:100C30005E60BDF85C7000BF00BFBDF88E00BDF8FF
:100C40008A10401A401C23E0BDD3CFC2C0B4B4F216
:100C5000D3A1BBF1B5C3B5C4BED8D0CEC7F8D3F2CB
:100C6000A3BA0A00B5DA2564B8F6BED8D0CEA3BAC6
:100C70007B25642025642025642025647D0A0000EE
:100C8000D7DCB9B22564B8F6BED8D0CE0A000000D1
:100C900080B20D90BDF88C00BDF88810401A401C41
:100CA00080B20C90BDF86200BDF85E10401A401C86
:100CB00080B20B90BDF86000BDF85C10401A401C7B
:100CC00080B20A900B9806F0BFF904460D460D98C5
:100CD00006F0BAF922462B46CDE9080106F02FF9B5
:100CE000CDE90E010A9806F0AFF904460D460C98BE
:100CF00006F0AAF922462B46CDE9080106F01FF9B5
:100D0000CDE91001BDF85E6058E0BDF85E00301A14
:100D10001FFA80FABDF85C704AE0BDF85C00381A32
:100D20001FFA80FB504606F08FF90446DDE90E23DA
:100D300006F094F8CDE90401139806F085F9CDE9A1
:100D40000201DDE9042305F0E4FF0022FF4BCDE9B9
:100D5000060105F0DEFFCDE9080106F096F9000472
:100D6000800B59F80040584606F06EF9CDE90001B5
:100D7000DDE9102306F072F8CDE90401129806F0BF
:100D800063F9CDE90201DDE9042305F0C2FF002289
:100D9000EE4BCDE9060105F0BCFFCDE9080106F0F8
:100DA00074F980B2205C58F82610C855781C87B2B8
:100DB000BDF86000B842B0DA701C86B2BDF86200BF
:100DC000B042A2DA002019B0BDE8F08F70B5044639
:100DD0000D4600200AE0002104E054F8206073541E
:100DE0004E1CB1B29142F8DB461CB0B2A842F2DB15
:100DF00070BD2DE9F04F87B08046894615461E46E6
:100E0000DDE912AB5446002005900690D04803C897
:100E1000CDE903010123324629464046FFF7D6FFBC
:100E2000002720E0D4E90001CDE90501DDE9050155
:100E3000CDE9000149464046DDE90323FFF7ECFE1A
:100E4000DDE90301C4E90001BDF80C00083080B2FF
:100E5000ADF80C00BDF80C00C01D80B2ADF810005C
:100E6000A468781C87B25F45DCDB002007B0BDE8D2
:100E7000F08F2DE9FF4F85B007468A46129C002669
:100E800028E1E0886188401A401C1FFA80FBA08896
:100E90002188401A401C80B20490002505E0002003
:100EA00057F826104855681C85B20D2DF7DB002534
:100EB00055E0294605EBD572521002FB0BF0C21724
:100EC00000EB9272638803EBA2021FFA82F835E00E
:100ED000284605EBD5725210A5EB4202049B02FB9B
:100EE00003F101EBD172238803EB62021FFA82F94E
:100EF0000FE05AF8280010F8090030B957F826001A
:100F0000405D401C57F82610485509F101001FFAB2
:100F100080F905EBD5725210A5EB4202521C049BDE
:100F200002FB03F101EBD17253102288521E1A44C6
:100F30004A45DEDA08F101001FFA80F805EBD572A8
:100F40005210521C02FB0BF0C21700EB927293106E
:100F50006288521E1A444245BADA681C85B2082DCE
:100F6000A7DBB4F8028019E0B4F800900FE05AF85B
:100F7000280010F8090030B957F82600007A401C04
:100F800057F82610087209F101001FFA80F9A088AD
:100F90004845ECDA08F101001FFA80F8E088404586
:100FA000E2DA584606F03FF800226A4BCDE900012C
:100FB00005F0C5FFCDE9020106F067F81FFA80F8D9
:100FC000B4F800900FE05AF8280010F8090030B982
:100FD00057F82600407A401C57F82610487209F14D
:100FE00001001FFA80F9A0884845ECDC4FEA4B006D
:100FF00006F019F80022574BCDE9000105F09FFFDC
:10100000CDE9020106F041F81FFA80F8B4F800902B
:101010000FE05AF8280010F8090030B957F82600F8
:10102000807A401C57F82610887209F101001FFAD7
:1010300080F9A0884845ECDC049805F0F4FF002214
:10104000444BCDE9000105F07AFFCDE9020106F03D
:101050001CF81FFA80F9B4F802800FE05AF8280053
:1010600010F8090030B957F82600C07A401C57F82C
:101070002610C87208F101001FFA80F8E088404588
:10108000ECDC0499480005F0CEFF0022314BCDE99D
:10109000000105F054FFCDE9020105F0F6FF1FFA4B
:1010A00080F9B4F802800FE05AF8280010F809001F
:1010B00030B957F82600007B401C57F826100873FB
:1010C00008F101001FFA80F8E0884045ECDCA468D4
:1010D000701C86B213988642FFF6D3AE002009B08A
:1010E000BDE8F08F2DE9F04F8BB0064689461746D4
:1010F00098464FF0000A4FF47A7B002454E0002514
:101100004EE059F82410485D05F09EFF56F8242063
:1011100002EBC50203C2504605F096FFCDE9080177
:1011200056F8240000EBC50003C802460B46CDE983
:101130000601DDE9080105F0D5FF11D256F82400BB
:1011400000EBC500D0E90021104605E00000E03FBB
:10115000488600080000084005F097FF1FFA80FA53
:10116000584605F071FFCDE9080156F8240000EB60
:10117000C50103C902460B46CDE90601DDE90801B8
:1011800005F0C4FF0AD256F8240000EBC500D0E9F0
:101190000021104605F079FF1FFA80FB681C85B21C
:1011A0004545AEDB601C84B2BC42A8DB00242FE0C6
:1011B000002529E0AAEB0B01481C05F034FFCDE91E
:1011C0000801584605F040FFCDE9020156F8240019
:1011D00000EBC50103C9CDE90001DDE9022305F0FB
:1011E00037FE0022FF4BCDE9040105F092FDCDE969
:1011F0000601DDE9082305F0A2FE56F8242002EBE3
:10120000C50203C2681C85B24545D3DB601C84B2AD
:10121000BC42CDDB0BB0BDE8F08FF0B504460D4607
:1012200000200FE0002109E055F82060765CC6F14F
:10123000010654F820707E544E1CB1B29942F3DB83
:10124000461CB0B29042EDDBF0BDF0B504460D4651
:10125000059E002017E0002111E055F820707F5C0A
:10126000B74205DB012754F820C00CF8017004E0F8
:10127000002754F820C00CF801704F1CB9B29942F5
:10128000EBDB471CB8B29042E5DBF0BD2DE9F74F30
:10129000CAB04FF4807109A805F061FC00200890E5
:1012A0000490059080461DE04FF0000913E04A9835
:1012B00050F8280010F8090009A9085C401CC1B2C8
:1012C0004A9850F8280010F8090009AA115409F1A9
:1012D00001001FFA80F94C988145E8DB08F1010014
:1012E0001FFA80F84B988045DEDB4FF0000819E0CC
:1012F00009A810F808100898084480B2089009A9B5
:1013000011F8081001FB08F005F08DFECDE902018F
:10131000DDE9042305F0FDFCCDE9040108F101003D
:101320001FFA80F8B8F1FF0FE2DD089805F08CFE97
:1013300002460B46CDE90001DDE9040105F0FFFDA1
:10134000CDE9020105F0A1FE80B2069000BFDDF8F4
:1013500018B04FF0000A00242546A04618E009A85E
:1013600010F8080050441FFA80FA09A911F8081073
:1013700001FB08F005F057FE22462B46CDE902019D
:1013800005F0C7FC04460D4608F101001FFA80F87D
:10139000D845E4DD0898A0EB0A0080B20790224609
:1013A0002B46DDE9040105F053FD06460F46BAF170
:1013B000000F0DD0504605F047FE02460B46CDE922
:1013C00002012046294605F0BAFD04460D4601E01B
:1013D00000242546079868B1079805F035FE0246B7
:1013E0000B46CDE902013046394605F0A8FD064618
:1013F0000F4601E00026374632463B462046294646
:1014000005F087FC00224FF08043CDE9000105F094
:1014100096FDCDE9020105F038FE80B206900698EF
:10142000834594D10BF0FF004DB0BDE8F08F2DE95E
:10143000F04FADF25C6D06460F46904608FB07F094
:1014400080B21590002014900E90002409E0002036
:101450000DF58B6121F8140016A941F82400601CD9
:1014600084B2FF2CF3DD002416E0002510E056F8CE
:101470002400405D0DF58B6131F81000401C56F8DA
:101480002410495D0DF58B6222F81100681C85B2AD
:101490004545ECDB601C84B2BC42E6DB002412E074
:1014A000159805F0BBFD0DF58B610D9031F814001A
:1014B00005F0B4FD0C900D9905F0EBFB16A941F871
:1014C0002400601C84B2FF2CEADD002499E0002097
:1014D0000F9010901190129083468246814613908F
:1014E000002530E0A54216DC16A850F82510484625
:1014F00005F041FB8146284605F090FD0C9016A8AA
:1015000050F825100C9805F08EFB59460D9005F00B
:1015100032FB834615E016A850F82510504605F01A
:101520002AFB8246284605F079FD0C9016A850F853
:1015300025100C9805F077FB0D90139905F01BFB17
:101540001390681C85B2FF2DCCDD4946584605F046
:10155000A0FB12905146139805F09BFB1190584642
:10156000139905F008FB1090DDE9101005F055FB0C
:10157000019005F0A1FD00224FF08043CDE902016A
:1015800006F050FBCDE90601504605F095FDCDE98A
:101590000401DDE9062305F061FCCDE90A0110999B
:1015A000129805F03AFB019005F086FD00224FF0FD
:1015B0008043CDE9020106F035FBCDE9060148463E
:1015C00005F07AFDCDE90401DDE9062305F046FCCE
:1015D000CDE90801DDE90A2305F09BFBCDE90C010B
:1015E00002E000000000F03F05F0A4FD0F90DDE9EF
:1015F0000E1005F0BBFD02D20F980E901494601CE3
:1016000084B2FF2C7FF763AF1498C0B20DF25C6D0B
:10161000BDE8F08F2DE9F04303468C4690466446C2
:10162000454600260027002117E0002211E053F86C
:101630002100805C58B9A24200DA1446B24200DDB3
:101640001646A94200DA0D46B94200DD0F46501C8D
:1016500082B24245EBDB481C81B26145E5DB29469D
:1016600012E022460BE053F82100805C00B908E04C
:10167000002053F8219009F80200501C82B2B242B7
:10168000F1DD00BF481C81B2B942EADD214612E01B
:101690003A460BE053F82100805C00B908E00020D6
:1016A00053F8219009F80200501E82B2AA42F1DAE2
:1016B00000BF481C81B2B142EADD224612E0294651
:1016C0000BE053F82100805C00B908E0002053F8DB
:1016D000219009F80200481C81B2B942F1DD00BF37
:1016E000501C82B2B242EADD224613E0781E81B27B
:1016F0000BE053F82100805C00B908E0002053F8AB
:10170000219009F80200481E81B2A942F1DA00BF17
:10171000501C82B2B242E9DD0020BDE8F0832DE921
:10172000FF4F80460E4693461C46DDE90FA9DDE9D2
:101730000D577B480088484503DB012004B0BDE815
:10174000F08F77480088401C75490880012005FB10
:101750000641785472480088401E2AF8204070489C
:101760000088401E0AEB800045806D48008848458F
:1017700001DB0120E2E7601E7ED4681E7CD4ABF161
:101780000100611C884277DB701E691C884273DD92
:10179000601E58F82010681E085C90B9601E691E13
:1017A00001FB0600385C60B9681E80B28DE88104D8
:1017B000CDF80C90601E83B25A4631464046FFF782
:1017C000AEFF58F82410681E085C80B9681E00FB44
:1017D0000640385C58B9681E80B223465A463146E6
:1017E0008DE88104CDF80C904046FFF798FF601C0F
:1017F00058F82010681E085C90B9681E611C00FB38
:101800000610385C60B9681E80B28DE88104CDF89E
:101810000C90601C83B25A4631464046FFF77FFF6A
:10182000601E58F82000405D78B9601E05FB060078
:10183000385C50B9601E83B25A46314640468DE846
:10184000A004CDF80C90FFF76AFF601E58F8201036
:10185000681C085CA0B9601E691C01FB0600385CAE
:1018600070B9681C80B28DE88104CDF80C90601EC0
:1018700083B25A46314600E047E04046FFF74FFF4B
:10188000601C58F82000405D78B9601C05FB06001C
:10189000385C50B9601C83B25A46314640468DE8E8
:1018A000A004CDF80C90FFF73AFF58F82410681CFC
:1018B000085C80B9681C00FB0640385C58B9681C9D
:1018C00080B223465A4631468DE88104CDF80C900B
:1018D0004046FFF724FF601C58F82010681C085C85
:1018E000A8B9601C691C01FB0600385C78B9681C4B
:1018F00080B28DE88104CDF80C90601C83B25A460A
:1019000031464046FFF70BFF01E0012016E704488F
:101910000088484501DB012010E700200EE70000A9
:10192000020000202DE9FC4104460D460027A000DE
:1019300006F042F90746002606E0284606F03CF984
:1019400047F82600701C86B2A642F6DB67B932A0C3
:1019500005F034FE31A31022CDE90023C8231A4636
:101960003221282003F0CDFD3846BDE8FC812DE969
:10197000F04105460E4690462F46002405E057F8F4
:10198000240006F0F1F8601C84B2B442F7DB38465C
:1019900006F0EAF8BDE8F0812DE9F04105460E4673
:1019A000A80006F009F98046002406E0F00006F0E1
:1019B00003F948F82400601C84B2AC42F6DB002432
:1019C0000FE0002709E01949194858F8242002EBD4
:1019D000C702C2E90010781C87B2B742F3DB601C73
:1019E00084B2AC42EDDB4046BDE8F0812DE9F04128
:1019F00005460E461746002400BF05E055F82400B2
:101A000006F0B2F8601C84B2B442F7DB284606F058
:101A1000ABF80020BDE8F0816572723A6D616C6CC4
:101A20006F63206661696C65642100008DEDB5A06F
:101A3000F7C6B03E4FF0E021096921F004014FF0F4
:101A4000E0221161C21700EB5272D2101F4B1A70C4
:101A5000194609784FF47A7251431D4A1180704734
:101A600001461B4A12884A434FF0E0235A61002284
:101A70009A6101221A6100BF4FF0E022106910F054
:101A8000010F02D010F4803FF6D000224FF0E02387
:101A90001A619A61704701460C4A12784A434FF026
:101AA000E0235A6100229A6101221A6100BF4FF0BF
:101AB000E022106910F0010F02D010F4803FF6D040
:101AC00000224FF0E0231A619A6170470400002061
:101AD00006000020AF4A0A400243AF4B1A6070472D
:101AE0000146072323EA01021202AC4B18684FF6A5
:101AF000FF0300EA0300AA4B40EA030040EA0200A9
:101B00004FF0E023C3F80C0D70472DE9F0478046F5
:101B1000894614461D462046E11704EB91714FEAB1
:101B2000A10AE11704EB91718910A4EB8101CFB2F6
:101B3000042000EBC700C7B22846FFF7D1FFC5F16C
:101B4000040008FA00F60F20284100EA09000643C5
:101B500006F00F06202C0CDA924800684FF00101C5
:101B600001FA04F140EA01004FF0E021C1F8000160
:101B70000DE08D480068A4F120014FF0010202FA47
:101B800001F240EA02004FF0E021C1F80401874869
:101B900050F82A0006FA07F10843844941F82A0060
:101BA000BDE8F08770B504460B46CE1701EB96767C
:101BB000B010CE1701EB9676B610A1EB8606B606EE
:101BC000350E7B4B9B6943F00103794EB3614FEABD
:101BD000B63353F820300F26AE40B343754E46F867
:101BE0002030334653F8203004FA05F63343714E63
:101BF00046F82030704B1E684FF0010303FA01F3E2
:101C000046EA03066D4BC3F8006412F0010F0AD0D8
:101C10006B4B1B684FF0010606FA01F643EA060318
:101C2000664EC6F80C3412F0020F0AD0654B1B68E2
:101C30004FF0010606FA01F643EA06035F4EC6F8C6
:101C4000083470BD00B5002059490861C8601420EF
:101C5000486100208861C8610846006840F00100C2
:101C6000086008464068584908405149486008469D
:101C70000068564908404E4908600846006820F44C
:101C8000802008600846406820F4FE00486000207C
:101C9000886000214FF00060FFF71CFF00BD10B509
:101CA0004B48006840F004004FF0E021C1F8100DEF
:101CB0003F48C06940F080503D49C8614548406890
:101CC00040F48070434948600846006840F00400D2
:101CD00008600846006840F002000860FEF710FA4D
:101CE00010BD2F48001D2D49086070470146490668
:101CF0002F4A926942F001022D4B9A612F4A526895
:101D000022F0E0622D4B5A601A4652680A435A602C
:101D1000704730B504460025FFF794FF244800685B
:101D200040F480302249086000BF21480068400C20
:101D3000FBD04FF480601E494860A01EC4B2084624
:101D4000406840EA844048600846406840F480307B
:101D500048602148006840F032001F49086014487C
:101D6000006840F080701249086000BF10480068A9
:101D7000400EFBD00E48406840F002000C4948601D
:101D800005E00B484068C0F3870505F00305022D08
:101D9000F7D130BD80FFFF1F08ED00E00CED00E043
:101DA0000000FA0500E100E004E100E000E400E0EA
:101DB0000010024008000140000401400000014002
:101DC0000C040140080401400000FFF8FFFFF6FE8C
:101DD00010ED00E00070004000200240014600BF0E
:101DE000704700BF5A4A128812F0400FFAD0C2B2B0
:101DF000584B1A8070475649098811F0200F33D08C
:101E000054490988C8B25449098811F4004F2BD1AC
:101E10005149098811F4804F0CD00A2803D00021C1
:101E20004D4A118020E04C49098841F400414A4A5A
:101E3000118019E00D2806D14749098841F48041F5
:101E4000454A118010E044490988C1F30D01434A15
:101E5000505441490988491C3F4A1180114609885C
:101E6000C72901DD0021118070472DE9F05F05468B
:101E70000E46300105F0D2F88146394905FB01F0E4
:101E800005F0CCF88246494604F003FF0746384681
:101E900005F0E7F884B2204605F0C0F883463946DD
:101EA00004F0BEFE82464FF0834104F0BCFE814642
:101EB00005F0D7F88046240104EB080084B22948D5
:101EC000806940F00400274988610846806940F431
:101ED000804088612448006820F47F602349C1F86D
:101EE00004080846D0F8040840F40B60C1F8040860
:101EF0001C48C06840F480401A49C8600846C06861
:101F000020F48040C8601A48A0F8084819480088A2
:101F100042F20C0140EA01001549A1F80C080846FC
:101F2000B0F80C0840F48070A1F80C080846B0F82E
:101F30000C0840F020000F4908804FF002034FF0DA
:101F400025024FF003010846FFF7DFFDBDE8F09FD3
:101F500000380140043801400800002080010020C2
:101F600040420F0000100240040801400000014000
:101F7000003001400C3801401B48806940F00400EB
:101F8000194988610846806940F020008861174837
:101F9000006820F00F001649C1F804080846D0F880
:101FA000040840F00300C1F804080846D0F80C0803
:101FB00040F48070C1F80C080E48D0F8000420F4FA
:101FC00070600C49C1F800040846D0F8000440F4E1
:101FD0004070C1F800040846D0F80C0440F004003A
:101FE000C1F80C04704700000010024004080140D2
:101FF000000001400010014010B50A20FFF730FD3D
:102000005F480068012810D15E48006808B90120C7
:1020100000E000205B4908605B48D0F8880108B9FF
:10202000012000E00020594908600120584908605B
:1020300010BD10B55748806940F0040055498861CB
:102040000220FFF753FE5448006820F00F00534968
:10205000C1F800080846D0F8000840F00800C1F8B0
:1020600000084F4800684F4900EA01004B49C1F899
:1020700004084B4800684C4940EA01004749C1F850
:1020800004080846D0F80C0840F40050C1F80C08C9
:102090000846D0F80C0840F40040C1F80C084FF096
:1020A00002024FF000010846FFF77CFD01220D21DE
:1020B0000020FFF777FD01220F210020FFF772FDBE
:1020C0000223062219461846FFF71FFD0223282285
:1020D00001211846FFF719FD10BD2D48006810F4C6
:1020E000004F19D031480078022815DA2F480078BF
:1020F00050B900202E4908604FF001002D49C1F869
:1021000080012D49086002E000202B490860274823
:102110000078401C254908704FF400401C490860B5
:10212000704710B51B48806940F004001949886168
:102130000120FFF7DBFD1A48006820F070401749C6
:10214000C1F804080846D0F8040840F00040C1F87F
:1021500004080846D0F80C0840F40040C1F80C0808
:102160004FF001024FF00F014FF00000FFF71AFD92
:102170000223282201211846FFF7C7FC10BD0000EA
:1021800000012142A0012142008022428881224296
:10219000140401400010024000080140000001400A
:1021A00004080140FFFF0F0F000080801000002096
:1021B0008001214200002142B001214245F25552E6
:1021C0003D4B1A601A46506091604AF6AA221A6086
:1021D0004CF6CC421A6070474AF6AA20364908608D
:1021E000704770B504460D4616463448C06940F441
:1021F00000603249C8613249097804EA0100304977
:1022000008703048006840EAC6102F49C1F8040C35
:102210000846D0F8040C40F40070C1F8040C2948BA
:1022200000684FF6807100EA01002749C1F8040CEC
:102230000846D0F8040C40EA0500C1F8040C234815
:1022400000681F49097841F0800140EA01001E49F9
:10225000C1F8000C4FF002034FF000024FF00301F1
:102260001846FFF752FC70BD1849096800F07F025C
:1022700041EA0201144AC2F8001C704710B5114827
:10228000006800F07F031048D0F8000C00F07F04D5
:102290009C4203DA0A480078FFF7E6FF00200C4969
:1022A00008600C48D0F8880108B9012000E000203F
:1022B0000949086010BD00000030004000100240D5
:1022C00011000020042C004000200040002C0040A1
:1022D000082C004000802242888122424A4800881F
:1022E00010F0010F02D000204849087046480088CD
:1022F00020F001004FF08041A1F81004704770B544
:1023000004460D464248C06940F002004049C86199
:10231000404804804FF08040A0F82854B0F80C04E6
:1023200040F001004FF08041A1F80C040846B0F8DD
:102330000C0440F04000A1F80C040846B0F800047A
:1023400040F00100A1F800044FF002034FF01D021D
:102350004FF003014FF00100FFF7D7FB70BD2C4A8F
:10236000D26942F002022A4BDA612B4A126822F04B
:102370000F022A4BC3F804281A46D2F8042842F068
:102380000402C3F804281A46D2F8002822F070424A
:10239000C3F800281A46D2F8002842F03042C3F8A9
:1023A00000281A46D2F80C2842F08002C3F80C2804
:1023B0004FF08042A2F82C04A2F82814B2F8182496
:1023C00042F4E0424FF08043A3F818241A46B2F8D2
:1023D000182442F40062A3F818241A46B2F8202404
:1023E00042F010020E4B1A804FF400424FF080432F
:1023F000A3F800244FF08042B2F8002442F001021A
:10240000084B1A80704700001004004012000020A2
:10241000001002402C04004004080140000001406C
:1024200020040040000400404FF48071FF4A5161D5
:1024300049005161FE4908604FF08001516111610E
:102440004FF400711161704710B54FF08830F949B1
:102450000860F949C1F8040C4FF00000F449086025
:102460004FF48070F14908614FF4007048614FF0FB
:1024700040004861F1488088A0F50941893902D1BE
:102480000220FFF708FB4020E8490861EC4800689B
:1024900084B24FF4007008614FF03330E649C1F860
:1024A000000CE84908604FF6FF70E349C1F80C0CD6
:1024B000204610BD10B504460B462046FFF7B4FF7A
:1024C0004FF48070D949086140004861D8480360E2
:1024D0004FF08000486108614FF40070086110BD42
:1024E00010B504462046FFF79FFFFFF7ADFF10BD74
:1024F00000B5D249C879FFF797FF00BD4FF480714E
:10250000CA4A116149005161C94908604FF0800110
:10251000516111614FF400711161704730B501468E
:1025200001F01F04C1F34513CA0AE50205EB431588
:102530001544A8B230BD2DE9F04105460E46BF480E
:102540000088A84203DDBD484088B04202DC00207C
:10255000BDE8F0813146284604F0B6FFB7488088D0
:10256000A0F51341413905D0B4488088A0F5D04189
:10257000043903D12E20FFF757FF02E02220FFF796
:1025800053FF4FF08830AB490860AB49C1F8040CE9
:102590004FF6FF70A64908604FF48070A3490861A8
:1025A0004FF4007048614FF0400048614FF0010067
:1025B000FFF771FA40209D49086148610120FFF74B
:1025C0006AFA4020994908619D48006884B29B4896
:1025D0008088A0F5134141390BD1402093494861CF
:1025E0000861974800681FFA80F8E7B24FEA0727AA
:1025F0000CE092488088A0F5D041043906D14020F3
:102600008A49486108618E48006884B24FF40070BE
:10261000864908614FF03330864908608649C1F821
:10262000040C4FF6FF70C1F80C0C84488088A0F5AC
:102630001341253917D081488088A0F58A41353962
:1026400011D07E488088A0F58A4131390BD07B4873
:102650008088A0F50941893905D078488088A0F59F
:102660003541053901D1204672E774488088A0F5CC
:102670001341413907D1E012C002B91240EA4110BA
:1026800040EAE82064E72046FFF748FF60E700B52E
:102690006A488088A0F51341413905D06748808891
:1026A000A0F5D041043903D12920FFF7BDFE04E095
:1026B00040F273110720FFF7FDFE00BD00B55F4833
:1026C0008088A0F51341413905D05C488088A0F589
:1026D000D041043903D12820FFF7A6FE03E00021F2
:1026E0000720FFF7E7FE00BDF0B5054600240027F0
:1026F0005248807901281ED150488088A0F5D041E9
:10270000043918D0082D15D2DFE805F00406080AB0
:102710000C0E101206250DE007250BE0042509E03C
:10272000052507E0012505E0002503E0032501E07C
:10273000022500BF00BF41488088A0F51341413900
:1027400005D03E488088A0F5D04104396DD1082DD0
:102750001CD2DFE805F00406090C0F12151800BFA3
:1027600014E044F0800411E044F040040EE044F032
:10277000C0040BE044F0200408E044F0600405E0ED
:1027800044F0A00402E044F0E00400BF00BF36279C
:1027900044F0080429488088A0F5D041043901D1CB
:1027A00044F0020421463846FFF784FE14F0200F5F
:1027B0000DD02248008821494988884214DA1F48F0
:1027C000068840881D490880084646800CE01B4862
:1027D00000881A494988884206DD184806884088DA
:1027E00016490880084646801449087AFFF71CFEFF
:1027F0004FF480700D4908614000486100200C4989
:1028000008604FF080000949486108614FF400708A
:1028100008614FF4807008614FF4007048614FF018
:1028200000000549C1F80C0C0EE093E000100140D7
:102830000C0C0140000C0140000001404802002047
:10284000080C0140040C01404FF08000FF49486132
:1028500008614FF4007008614FF4807008614FF414
:1028600000704861FA480088A0F101004FEA20207A
:10287000F84908604FF08000F449486108614FF45E
:10288000007008614FF4807008614FF40070486177
:10289000EF480088A0F10100C0B2EE4908604FF097
:1028A0008000EA49486108614FF400700861E84916
:1028B000487AFFF7B9FD4FF48070E44908614000A1
:1028C00048610020E34908604FF08000DF4948611B
:1028D00008614FF4007008614FF4807008614FF494
:1028E000007048614FF00000DA4908604FF0800046
:1028F000D649486108614FF4007008614FF4807058
:1029000008614FF400704861D1484088A0F101008F
:102910004FEA2020CF4908604FF08000CB49486142
:1029200008614FF4007008614FF4807008614FF443
:1029300000704861C6484088A0F10100C0B2C54996
:1029400008604FF08000C149486108614FF4007091
:10295000086131E0082D1CD2DFE805F004070A0DFC
:102960000F12151844F0300413E044F0100410E086
:1029700044F020040DE000BF0BE044F0380408E010
:1029800044F0280405E044F0180402E044F0080490
:1029900000BF00BFAE488088A0F50941893904D145
:1029A000112746F240010C4302E0032744F480540F
:1029B00021463846FFF77EFDF0BD70B504460D4652
:1029C0002946204604F080FDFFF792FD4FF4807009
:1029D0009E490861400048619F4800889D49086001
:1029E0004FF080009949486108614FF40070086118
:1029F00070BD10B50446B4BB002095498871F02025
:102A000008804FF4A070488008468088A0F51341E4
:102A1000413905D08E488088A0F5D041043914D1C1
:102A20002C208B49C8712A2008722B204872084636
:102A30008088A0F5D04104394FD14FF4A07084496B
:102A400008804FF4F070488047E081488088A0F506
:102A50000941893908D122207D49C8714E20087268
:102A60004F20487239E007E022207949C8712020C0
:102A700008722120487230E075488088A0F5D04166
:102A800004392AD00120724988714FF4A07008805F
:102A9000F020488008468088A0F51341413907D1CD
:102AA0002C206B49C8712A2008722B20487214E030
:102AB00067488088A0F50941893907D122206449F7
:102AC000C8714F2008724E20487206E022206049EB
:102AD000C87121200872202048720020FFF704FEF0
:102AE00010BD70B504460026594805884088454306
:102AF0000021084604F0E8FCFFF7FAFC00BF10E0F4
:102B00004FF48070514908614000486151480460A9
:102B10004FF08000486108614FF40070086106F1D1
:102B20000106AE42ECD370BD10B54C48806940F050
:102B300008004A4988610846806940F010008861B1
:102B40000846806940F0010088610120FFF7CEF857
:102B50003E4840686FF30B003C49486008464068B7
:102B600040F233310843394948600846006820F094
:102B70007F4008600846006840F04C5008600846F6
:102B8000C06840F4F860C8604FF0333034490860E2
:102B90003449C1F8000C4FF6FF702E4908604FF021
:102BA0003200FEF75DFF01210020FFF783FC322099
:102BB000FEF756FF0020FFF793FC25498880084662
:102BC0008088FF280ADB08468088A0F57F41FF390E
:102BD00004D01F488088B0F5134F54D1D320FFF79D
:102BE00023FCFFF731FCFFF72FFCFFF72DFC184902
:102BF0008880084680880006000C8880FFF724FC47
:102C00001349898808431249888008468088A0F5BE
:102C10001341413918D0BF20FFF706FCFFF714FC21
:102C2000FFF712FCFFF710FCFFF70EFC0849888045
:102C3000084680880006000C8880FFF705FC0449E0
:102C4000898808430249888001480DE0001001404E
:102C5000480200200C0C014014000020001002402B
:102C6000040C0140000001408088A0F51341413967
:102C700009D0FF488088A0F5D041043903D049F23B
:102C80004130FB498880FA488188FAA004F096FC1C
:102C9000F7488088A0F5134141397ED1CF20FFF756
:102CA000C3FB4FF48070F749086140004861002081
:102CB000F54908604FF08000F249486108614FF41F
:102CC000007008614FF4807008614FF40070486133
:102CD0004FF0C100ED49C1F80C0C4FF08000E949FC
:102CE000486108614FF4007008614FF4807008611A
:102CF0004FF4007048614FF03000E34908604FF036
:102D00008000E049486108614FF4007008614FF0AD
:102D1000ED00FFF789FB4FF48070DA49086140004D
:102D200048616420D84908604FF08000D549486167
:102D300008614FF4007008614FF4807008614FF42F
:102D4000007048614FF00300CF4908604FF08000E9
:102D5000CC49486108614FF4007008614FF48070FD
:102D600008614FF4007048614FF01200C6490860D6
:102D70004FF08000C349486108614FF4007008615A
:102D80004FF4807008614FF4007048614FF081008B
:102D9000BD4908604FF0800000E0FEE3B94948619A
:102DA00008614FF4007008614FF0E800FFF73CFB4A
:102DB0004FF48070B3490861400048618520B249F2
:102DC00008604FF08000AF49486108614FF400701F
:102DD00008614FF4807008614FF4007048614FF053
:102DE0001000A94908604FF08000A64948610861B9
:102DF0004FF4007008614FF4807008614FF4007068
:102E000048614FF07A00A04908604FF080009D496A
:102E1000486108614FF4007008614FF0CB00FFF784
:102E200003FB4FF4807097490861400048613920E6
:102E3000954908604FF080009249486108614FF45D
:102E4000007008614FF4807008614FF400704861B1
:102E50004FF02C008C4908604FF080008949486190
:102E600008614FF4007008614FF4807008614FF4FE
:102E7000007048614FF00000834908604FF0800007
:102E80008049486108614FF4007008614FF4807018
:102E900008614FF4007048614FF034007A490860CF
:102EA0004FF080007749486108614FF40070086175
:102EB0004FF4807008614FF4007048614FF00200D9
:102EC000714908604FF080006E49486108614FF415
:102ED000007008614FF0F700FFF7A6FA4FF480701A
:102EE00068490861400048612020674908604FF048
:102EF00080006449486108614FF4007008614FF038
:102F0000EA00FFF791FA4FF480705E4908614000D3
:102F1000486100205C4908604FF0800059494861D1
:102F200008614FF4007008614FF4807008614FF43D
:102F3000007048614FF00000534908604FF0800076
:102F40005049486108614FF4007008614FF0C000BB
:102F5000FFF76AFA4FF480704A49086140004861FF
:102F60001B20494908604FF08000464948610861CC
:102F70004FF4007008614FF0C100FFF755FA4FF4AD
:102F80008070404908614000486101203E49086066
:102F90004FF080003B49486108614FF400700861C0
:102FA0004FF0C500FFF740FA4FF4807035490861D3
:102FB000400048613020344908604FF080003149BA
:102FC000486108614FF4007008614FF48070086137
:102FD0004FF4007048614FF030002C49C1F80C0CE0
:102FE0004FF080002749486108614FF40070086184
:102FF0004FF0C700FFF718FA4FF4807021490861BD
:1030000040004861B720204908604FF080001D490A
:10301000486108614FF4007008614FF03600FFF717
:1030200003FA4FF480701749086140004861482056
:10303000154908604FF080001249486108614FF45B
:10304000007008614FF03A00FFF7EEF94FF480701E
:103050000C4908614000486155200B4908604FF059
:1030600080000849486108614FF4007008610FE072
:1030700048020020204C43442049443A25780D0A58
:1030800000000000001001400C0C01400000014055
:103090004FF0B100FFF7C8F94FF48070FF490861A5
:1030A000400048610020FE4908604FF08000FB4965
:1030B000486108614FF4007008614FF48070086146
:1030C0004FF4007048614FF01A00F54908604FF066
:1030D0008000F249486108614FF4007008614FF0C8
:1030E000B600FFF7A1F94FF48070EC490861400089
:1030F00048610A20EA4908604FF08000E7494861CA
:1031000008614FF4007008614FF4807008614FF45B
:10311000007048614FF0A200E14908604FF0800064
:10312000DE49486108614FF4007008614FF0F20019
:10313000FFF77AF94FF48070D84908614000486180
:103140000020D74908604FF08000D44948610861E9
:103150004FF4007008614FF02600FFF765F94FF457
:103160008070CE490861400048610120CC49086068
:103170004FF08000C949486108614FF40070086150
:103180004FF0E000FFF750F94FF48070C349086139
:10319000400048610F20C24908604FF08000BF49DD
:1031A000486108614FF4007008614FF48070086155
:1031B0004FF4007048614FF02A00B94908604FF0A1
:1031C0008000B649486108614FF4007008614FF40F
:1031D000807008614FF4007048614FF02800B049DA
:1031E00008604FF08000AD49486108614FF40070FD
:1031F00008614FF4807008614FF4007048614FF02F
:103200000800A74908604FF08000A44948610861A0
:103210004FF4007008614FF4807008614FF4007043
:1032200048614FF00E009E4908604FF080009B49B6
:10323000486108614FF4007008614FF480700861C4
:103240004FF4007048614FF00800954908604FF056
:1032500080009249486108614FF4007008614FF4A2
:10326000807008614FF4007048614FF054008C4941
:1032700008604FF080008949486108614FF4007090
:1032800008614FF4807008614FF4007048614FF09E
:10329000A900834908604FF08000804948610861B7
:1032A0004FF4007008614FF4807008614FF40070B3
:1032B00048614FF043007A4908604FF08000774939
:1032C000486108614FF4007008614FF48070086134
:1032D0004FF4007048614FF00A00714908604FF0E8
:1032E00080006E49486108614FF4007008614FF436
:1032F000807008614FF4007048614FF00F0068491A
:1033000008604FF080006549486108614FF4007023
:1033100008614FF4807008614FF4007048614FF00D
:1033200000006049C1F80C0C4FF080005B49486117
:1033300008614FF4007008614FF4807008614FF429
:10334000007048614FF00000554908604FF0800060
:103350005249486108614FF4007008614FF4807071
:1033600008614FF4007048614FF000004C4908605C
:103370004FF080004949486108614FF400700861CE
:103380004FF4807008614FF4007048614FF0000006
:10339000434908604FF080004049486108614FF49C
:1033A000007008614FF0E100FFF73EF84FF48070C5
:1033B0003A490861400048610020394908604FF0EF
:1033C00080003649486108614FF4007008614FF48D
:1033D000807008614FF4007048614FF0150030496B
:1033E00008604FF080002D49486108614FF400707B
:1033F00008614FF4807008614FF4007048614FF02D
:103400001700274908604FF080002449486108618F
:103410004FF4007008614FF4807008614FF4007041
:1034200048614FF007001E4908604FF080001B49BB
:10343000486108614FF4007008614FF480700861C2
:103440004FF4007048614FF01100154908604FF0CB
:1034500080001249486108614FF4007008614FF420
:10346000807008614FF4007048614FF006000C490D
:1034700008604FF080000949486108614FF400700E
:1034800008614FF4807008614FF4007048614FF09C
:103490002B00034908604FF0800005E00010014058
:1034A0000C0C014000000140FF49486108614FF4E5
:1034B000007008614FF4807008614FF4007048613B
:1034C0004FF05600F94908604FF08000F649486116
:1034D00008614FF4007008614FF4807008614FF488
:1034E000007048614FF03C00F04908604FF08000E8
:1034F000ED49486108614FF4007008614FF4807035
:1035000008614FF4007048614FF00500E74908601A
:103510004FF08000E449486108614FF40070086191
:103520004FF4807008614FF4007048614FF0100054
:10353000DE4908604FF08000DB49486108614FF4C4
:10354000007008614FF4807008614FF400704861AA
:103550004FF00F00D54908604FF08000D249486114
:1035600008614FF4007008614FF4807008614FF4F7
:10357000007048614FF03F00CC4908604FF0800078
:10358000C949486108614FF4007008614FF48070C8
:1035900008614FF40070486100E0BFE04FF03F0069
:1035A000C24908604FF08000BF49486108614FF48C
:1035B000007008614FF4807008614FF4007048613A
:1035C0004FF00F00B94908604FF08000B6494861DC
:1035D00008614FF4007008614FF02B00FEF724FFE4
:1035E0004FF48070B0490861400048610020AF4945
:1035F00008604FF08000AC49486108614FF40070EA
:1036000008614FF4807008614FF4007048614FF01A
:103610000000A64908604FF08000A3494861086196
:103620004FF4007008614FF4807008614FF400702F
:1036300048614FF001009E49C1F80C0C4FF080002A
:103640009949486108614FF4007008614FF4807037
:1036500008614FF4007048614FF03F0093490860E3
:103660004FF080009049486108614FF40070086194
:103670004FF02A00FEF7D8FE4FF480708A490861A7
:10368000400048610020894908604FF08000864969
:10369000486108614FF4007008614FF48070086160
:1036A0004FF4007048614FF00000804908604FF00F
:1036B00080007D49486108614FF4007008614FF453
:1036C000807008614FF4007048614FF00000774946
:1036D00008604FF080007449486108614FF4007041
:1036E00008614FF4807008614FF4007048614FF03A
:1036F000EF006E4908604FF080006B494861086137
:103700004FF4007008614FF01100FEF78DFE782035
:10371000FEF7A6F92920FEF787FE0AE365488088B0
:10372000A0F5D04104397ED11120FEF77DFE142092
:10373000FEF796F9D020FEF777FE4FF480705A49D5
:103740000861400048610720584908604FF0800038
:103750005549486108614FF4007008614FF480706A
:1037600008614FF4007048614FF042005049C1F8C1
:103770000C0C4FF080004C49486108614FF4007018
:1037800008614FF4807008614FF4007048614FF099
:103790001D00464908604FF08000434948610861B8
:1037A0004FF4007008614FF0D100FEF73DFE4FF47A
:1037B00080703D4908614000486100203B49086035
:1037C0004FF080003849486108614FF4007008618B
:1037D0004FF4807008614FF4007048614FF01A0098
:1037E000324908604FF080002F49486108614FF46A
:1037F000007008614FF4807008614FF400704861F8
:103800004FF00900294908604FF0800026494861BF
:1038100008614FF4007008614FF0D200FEF704FE1B
:103820004FF4807000E085E21F4908614000486164
:1038300001201E4908604FF080001B494861086163
:103840004FF4007008614FF4807008614FF400700D
:1038500048614FF02200154908604FF0800012497E
:10386000486108614FF4007008614FF0C000FEF736
:10387000DBFD4FF480700C49086140004861102066
:103880000A4908604FF080000749486108614FF419
:10389000007008614FF4807008614FF40070486157
:1038A0004FF03B00014907E0001001400C0C0140C3
:1038B000000001404802002008604FF08000FF49EE
:1038C000486108614FF4007008614FF4807008612E
:1038D0004FF4007048614FF00000F94908604FF064
:1038E0008000F649486108614FF4007008614FF4A8
:1038F000807008614FF4007048614FF00200F04999
:1039000008604FF08000ED49486108614FF4007095
:1039100008614FF4807008614FF4007048614FF007
:103920001100E74908604FF08000E44948610861F0
:103930004FF4007008614FF0C500FEF775FD4FF4BD
:103940008070DE490861400048610320DC4908605E
:103950004FF08000D949486108614FF40070086158
:103960004FF0C800FEF760FD4FF48070D349086146
:10397000400048610020D24908604FF08000CF49E4
:10398000486108614FF4007008614FF4807008616D
:103990004FF4007048614FF02500C94908604FF0AE
:1039A0008000C649486108614FF4007008614FF417
:1039B000807008614FF4007048614FF02100C049E9
:1039C00008604FF08000BD49486108614FF4007005
:1039D00008614FF4807008614FF4007048614FF047
:1039E0000500B74908604FF08000B449486108619C
:1039F0004FF4007008614FF4807008614FF400705C
:103A000048614FF00000AE4908604FF08000AB49BC
:103A1000486108614FF4007008614FF480700861DC
:103A20004FF4007048614FF00A00A54908604FF05C
:103A30008000A249486108614FF4007008614FF4AA
:103A4000807008614FF4007048614FF065009C4938
:103A500008604FF080009949486108614FF4007098
:103A600008614FF4807008614FF4007048614FF0B6
:103A700025009449C1F80C0C4FF080008F49486133
:103A800008614FF4007008614FF4807008614FF4D2
:103A9000007048614FF07700894908604FF080005E
:103AA0008649486108614FF4007008614FF48070E6
:103AB00008614FF4007048614FF050008049086081
:103AC0004FF080007D49486108614FF40070086143
:103AD0004FF4807008614FF4007048614FF00F00A0
:103AE000774908604FF080007449486108614FF4DD
:103AF000007008614FF4807008614FF400704861F5
:103B00004FF000006E4908604FF080006B4948613B
:103B100008614FF4007008614FF0F800FEF784FC74
:103B20004FF4807065490861400048610120644994
:103B300008604FF080006149486108614FF40070EF
:103B400008614FF0FE00FEF76FFC4FF480705B4998
:103B50000861400048610020594908604FF080002A
:103B60005649486108614FF4007008614FF4807055
:103B700008614FF4007048614FF00200504908603E
:103B80004FF080004D49486108614FF400700861B2
:103B90004FF02000FEF748FC3620FEF745FC4FF4BE
:103BA0008070464908614000486108204449086027
:103BB0004FF080004149486108614FF4007008618E
:103BC0004FF03A00FEF730FC4FF480703B4908613B
:103BD0004000486155203A4908604FF0800037495D
:103BE000486108614FF4007008614FF02B00FEF748
:103BF0001BFC4FF48070314908614000486100208F
:103C00002F4908604FF080002C49486108614FF44B
:103C1000007008614FF4807008614FF400704861D3
:103C20004FF00000264908604FF0800023494861AA
:103C300008614FF4007008614FF4807008614FF420
:103C4000007048614FF001001D4908604FF080008E
:103C50001A49486108614FF4007008614FF48070A0
:103C600008614FF4007048614FF03F00144908604C
:103C70004FF080001149486108614FF400700861FD
:103C80004FF02A00FEF7D0FB4FF480700B4908611B
:103C90004000486100200A4908604FF08000074951
:103CA000486108614FF4007008614FF4807008614A
:103CB0004FF4007048614FF0000005E00010014033
:103CC0000C0C014000000140FF4908604FF08000EB
:103CD000FE49486108614FF4007008614FF480703C
:103CE00008614FF4007048614FF00100F649086028
:103CF0004FF08000F549486108614FF40070086199
:103D00004FF4807008614FF4007048614FF0DF009D
:103D1000ED4908604FF08000EC49486108614FF4BC
:103D2000007008614FF07800FDF79AFE2920FEF739
:103D30007BFB92E2E6488088A0F5134125397ED1CD
:103D400047F6F001E520FEF7B5FB4FF48071012046
:103D5000FEF7B0FB4FF4E0610220FEF7ABFB41F24F
:103D600030010320FEF7A6FB00210420FEF7A2FB92
:103D700040F202210820FEF79DFB00210920FEF7FA
:103D800099FB00210A20FEF795FB00210C20FEF78D
:103D900091FB00210D20FEF78DFB00210F20FEF787
:103DA00089FB00211020FEF785FB07211120FEF77B
:103DB00081FB00211220FEF77DFB00211320FEF77E
:103DC00079FB00210720FEF775FB41F2906110207E
:103DD000FEF770FB40F227211120FEF76BFB9D21BF
:103DE0001220FEF767FB4FF4C8511320FEF762FB69
:103DF00025212920FEF75EFB0D212B20FEF75AFB23
:103E000007213020FEF756FB40F203313120FEF748
:103E100051FB03213220FEF74DFB40F206213520F5
:103E2000FEF748FB08213620FEF744FB40F206412E
:103E30003720FEF73FFB4FF44171382000E057E098
:103E4000FEF738FB07213920FEF734FB40F2026110
:103E50003C20FEF72FFB08213D20FEF72BFB002125
:103E60005020FEF727FBEF215120FEF723FB002116
:103E70005220FEF71FFB40F23F115320FEF71AFBC2
:103E80004FF427416020FEF715FB01216120FEF76A
:103E900011FB00216A20FEF70DFB00218020FEF7B8
:103EA00009FB00218120FEF705FB00218220FEF79F
:103EB00001FB00218320FEF7FDFA00218420FEF79C
:103EC000F9FA00218520FEF7F5FA10219020FEF77F
:103ED000F1FA4FF4C0619220FEF7ECFA40F2331190
:103EE0000720FEF7E7FA22210020FEF7E3FAB4E10B
:103EF00077488088A0F5134128397ED141F28F019F
:103F0000EC20FEF7D7FA41F23421EF20FEF7D2FA87
:103F10004FF480710120FEF7CDFA4FF4E0610220EA
:103F2000FEF7C8FA41F230010320FEF7C3FA002180
:103F30000420FEF7BFFA40F202210820FEF7BAFA89
:103F400000210920FEF7B6FA00210A20FEF7B2FA96
:103F500001210C20FEF7AEFA00210D20FEF7AAFA8F
:103F600000210F20FEF7A6FA00211020FEF7A2FA8A
:103F700007211120FEF79EFA00211220FEF79AFA7F
:103F800000211320FEF796FA01210720FEF792FA8E
:103F90003220FDF765FD41F290411020FEF78AFACC
:103FA00040F227211120FEF785FA3220FDF758FD57
:103FB0008A211220FEF77EFA3220FDF751FD4FF4E0
:103FC000D0511320FEF776FA06212920FEF772FA67
:103FD0000D212B20FEF76EFA3220FDF741FD002166
:103FE0002020FEF767FA00212120FEF763FA322035
:103FF000FDF736FD0021302000E07CE0FEF75AFAA4
:1040000040F204613120FEF755FA40F205313220CA
:10401000FEF750FA00213520FEF74CFA40F6094130
:104020003620FEF747FA4FF401713720FEF742FAC7
:1040300040F201313820FEF73DFA40F20771392095
:10404000FEF738FA00213C20FEF734FA40F60A2148
:104050003D20FEF72FFA3220FDF702FD002150200F
:10406000FEF728FAEF215120FEF724FA0021522012
:10407000FEF720FA40F23F115320FEF71BFA4FF4EF
:1040800027416020FEF716FA01216120FEF712FA9F
:1040900000216A20FEF70EFA00218020FEF70AFABE
:1040A00000218120FEF706FA00218220FEF702FAA5
:1040B00000218320FEF7FEF900218420FEF7FAF9A3
:1040C0000021852006E000000C0C0140001001409A
:1040D00048020020FEF7EEF910219020FEF7EAF9E1
:1040E0004FF4C0619220FEF7E5F940F2331107204A
:1040F000FEF7E0F9B1E0FF488088A0F513412039D0
:104100007ED10846FEF7D6F94FF480710120FEF704
:10411000D1F94FF4E0610220FEF7CCF941F2300111
:104120000320FEF7C7F900210420FEF7C3F940F28F
:1041300002210820FEF7BEF900210920FEF7BAF996
:1041400000210A20FEF7B6F901210C20FEF7B2F992
:1041500000210D20FEF7AEF900210F20FEF7AAF98D
:104160003220FDF77DFC40F201110720FEF7A2F995
:104170003220FDF775FC4FF486511020FEF79AF9B6
:1041800007211120FEF796F94FF488711220FEF7EF
:1041900091F94FF430611320FEF78CF900212920AA
:1041A000FEF788F944F210012B20FEF783F9002175
:1041B0005020FEF77FF9EF215120FEF77BF9002117
:1041C0005220FEF777F940F23F115320FEF772F9C3
:1041D0004FF41C516020FEF76DF901216120FEF7BC
:1041E00069F900216A20FEF765F900218020FEF7B9
:1041F00061F900218120FEF75DF90021822000E0B5
:104200002CE0FEF757F900218320FEF753F9002137
:104210008420FEF74FF900218520FEF74BF910218D
:104220009020FEF747F900219220FEF743F9012183
:104230009320FEF73FF94FF488719520FEF73AF985
:1042400000219720FEF736F900219820FEF732F979
:1042500040F273110720FEF72DF9AFE2A5488088E0
:10426000A0F5134131397DD141F21401E720FEF769
:1042700021F94FF480710120FEF71CF94FF4007111
:104280000220FEF717F941F238010320FEF712F978
:1042900040F202210820FEF70DF900210920FEF767
:1042A00009F900210A20FEF705F900210C20FEF78C
:1042B00001F900210D20FEF7FDF800210F20FEF787
:1042C000F9F800211020FEF7F5F807211120FEF77C
:1042D000F1F800211220FEF7EDF800211320FEF77F
:1042E000E9F8C820FDF7BCFB41F290611020FEF711
:1042F000E1F840F227211120FEF7DCF83220FDF72B
:10430000AFFB0C211220FEF7D5F83220FDF7A8FBF9
:104310004FF400611320FEF7CDF811212920FEF79C
:10432000C9F80B212B20FEF7C5F83220FDF798FBCA
:1043300000212020FEF7BEF840F23F112120FEF7B9
:10434000B9F800213020FEF7B5F84FF48371312021
:10435000FEF7B0F800213220FEF7ACF84FF40171FF
:10436000352000E064E0FEF7A5F841F20A6136204E
:10437000FEF7A0F840F207713720FEF79BF84FF4E4
:1043800083713820FEF796F840F207713920FEF766
:1043900091F840F202413C20FEF78CF840F60F41C4
:1043A0003D20FEF787F800215020FEF783F8EF212B
:1043B0005120FEF77FF800215220FEF77BF840F2F3
:1043C0003F115320FEF776F84FF41C516020FEF7A2
:1043D00071F801216120FEF76DF800216A20FEF7D7
:1043E00069F800218020FEF765F800218120FEF7A2
:1043F00061F800218220FEF75DF800218320FEF79E
:1044000059F800218420FEF755F800218520FEF799
:1044100051F810219020FEF74DF84FF4C061922022
:10442000FEF748F840F233110720FEF743F8C5E1E4
:1044300030488088A0F5A84108397DD14FF48071BB
:104440000120FEF737F84FF4E0610220FEF732F862
:1044500041F230010320FEF72DF800210420FEF781
:1044600029F840F207210820FEF724F8002109204E
:10447000FEF720F800210A20FEF71CF800210C208E
:10448000FEF718F800210D20FEF714F800210F2088
:10449000FEF710F81420FDF7E3FA41F2B0611020A6
:1044A000FEF708F801211120FEF704F8012117207A
:1044B000FEF700F84FF49C711220FDF7FBFF4FF45C
:1044C00000611320FDF7F6FF09212920FDF7F2FF17
:1044D00009212A20FDF7EEFF0021A420FDF7EAFFC5
:1044E00000215020FDF7E6FFEF215120FDF7E2FF0C
:1044F000002101E0480200205220FDF7DBFF40F2DE
:104500003F115320FDF7D6FF4FF41C516020FDF7FB
:10451000D1FF01216120FDF7CDFF00216A20FDF7C9
:10452000C9FF00218020FDF7C5FF00218120FDF794
:10453000C1FF0021822000E027E0FDF7BBFF002142
:104540008320FDF7B7FF00218420FDF7B3FF002192
:104550008520FDF7AFFF13219020FDF7ABFF002171
:104560009220FDF7A7FF03219320FDF7A3FF4FF44F
:1045700088719520FDF79EFF40F273110720FDF72B
:1045800099FF3220FDF76CFA18E1FF488088A0F50A
:10459000A85105397ED10720FDF78CFF3220FDF7A9
:1045A0005FFA4FF48E711220FDF784FF0121A420E1
:1045B000FDF780FF0F210820FDF77CFF08210A206E
:1045C000FDF778FF08210D20FDF774FF40F2077119
:1045D0003020FDF76FFF07213120FDF76BFF40F220
:1045E00003613220FDF766FF4FF4E0613320FDF7F1
:1045F00061FF40F202213420FDF75CFF02213520EB
:10460000FDF758FF41F60F713620FDF753FF40F2DA
:1046100007713720FDF74EFF00213820FDF74AFFD4
:1046200000213920FDF746FF40F207713A20FDF7DF
:1046300041FF00213B20FDF73DFF07213C20FDF716
:1046400039FF00213D20FDF735FF3220FDF708FA44
:1046500001210720FDF72EFF01211720FDF72AFF7A
:104660003220FDF7FDF94FF4BD511020FDF722FF78
:1046700040F217211120FDF71DFF4FF48F7112201A
:10468000FDF718FF4FF470611320FDF713FF0021B1
:104690002A2000E093E0FDF70DFF0A212920FDF715
:1046A00009FF4FF49F711220FDF704FF00215020F5
:1046B000FDF700FFEF215120FDF7FCFE0021522005
:1046C000FDF7F8FE40F23F115320FDF7F3FE4FF4E3
:1046D0001C516020FDF7EEFE01216120FDF7EAFE8E
:1046E00000216A20FDF7E6FE00218020FDF7E2FEB2
:1046F00000218120FDF7DEFE00218220FDF7DAFE99
:1047000000218320FDF7D6FE00218420FDF7D2FE94
:1047100000218520FDF7CEFE13219020FDF7CAFE73
:104720004FF440719220FDF7C5FE05219320FDF75F
:10473000C1FE00219520FDF7BDFE00219720FDF769
:10474000B9FE00219820FDF7B5FE4FF480710120DD
:10475000FDF7B0FE4FF4E0610220FDF7ABFE41F241
:1047600038010320FDF7A6FE00210420FDF7A2FE7C
:1047700000210C20FDF79EFE00210F20FDF79AFE80
:1047800000212020FDF796FE00212120FDF792FE5A
:1047900021210720FDF78EFE1420FDF761F961212C
:1047A0000720FDF787FE1420FDF75AF940F2731138
:1047B0000720FDF77FFE1420FDF752F9A4E27248AE
:1047C0008088A0F5354105397DD10846FDF772FE98
:1047D00000210846FDF76EFE00210846FDF76AFE3F
:1047E00000210846FDF766FE0121A420FDF762FEC8
:1047F0001420FDF735F94FF41C516020FDF75AFEE7
:1048000040F202210820FDF755FE4FF405713020DB
:10481000FDF750FE43F215713120FDF74BFE40F2DB
:1048200004613220FDF746FE40F616613320FDF7A5
:1048300041FE42F211213420FDF73CFE4FF4A85115
:104840003520FDF737FE48F207513620FDF732FEDE
:1048500041F207413720FDF72DFE41F20341382098
:10486000FDF728FE20213920FDF724FE1A21902093
:10487000FDF720FE00211020FDF71CFE072111206E
:10488000FDF718FE00211220FDF714FE0021132071
:10489000FDF710FE1420FDF7E3F84FF4E661102059
:1048A000FDF708FE40F237111120FDF703FE14203A
:1048B000FDF7D6F84FF4DC711220FDF7FBFD142054
:1048C000FDF7CEF800E087E04FF470611320FDF7AC
:1048D000F1FD80212A20FDF7EDFD48212920FDF77B
:1048E000E9FD1420FDF7BCF84FF480710120FDF7BD
:1048F000E1FD4FF4E0610220FDF7DCFD41F23801FB
:104900000320FDF7D7FD40F202210820FDF7D2FD7C
:1049100000210A20FDF7CEFD00210C20FDF7CAFD85
:1049200000210D20FDF7C6FD30210E20FDF7C2FD50
:1049300000215020FDF7BEFDEF215120FDF7BAFD0B
:1049400000215220FDF7B6FD40F23F115320FDF744
:10495000B1FD4FF41C516020FDF7ACFD0121612039
:10496000FDF7A8FD00216A20FDF7A4FD112190208C
:10497000FDF7A0FD4FF4C0619220FDF79BFD40F2D2
:104980000241932002E0000048020020FDF792FD62
:1049900002219420FDF78EFD1420FDF761F801211E
:1049A0000720FDF787FD1420FDF75AF86121072045
:1049B000FDF780FD40F273110720FDF77BFD00211C
:1049C0002020FDF777FD00212120FDF773FD222136
:1049D0000020FDF76FFD14E3FF488088A0F54541F6
:1049E00005397DD10846FDF765FD00210846FDF734
:1049F00061FD1420FDF734F800210846FDF75AFD4B
:104A000000210846FDF756FD00210846FDF752FD3E
:104A100000210846FDF74EFD0121A420FDF74AFDC7
:104A20001420FDF71DF84FF41C516020FDF742FDE6
:104A300040F606010820FDF73DFD40F203713020ED
:104A4000FDF738FD01213120FDF734FD042132202E
:104A5000FDF730FD4FF481713320FDF72BFD4FF44E
:104A600040713420FDF726FD40F203113520FDF79B
:104A700021FD1F213620FDF71DFD40F20371372077
:104A8000FDF718FD01213820FDF714FD0421392020
:104A9000FDF710FD15219020FDF70CFD4FF482610C
:104AA0001020FDF707FD40F247211120FDF702FD20
:104AB0004FF4DE711220FDF7FDFC4FF4606113200E
:104AC000FDF7F8FC7820FCF7CBFF4FF48071012054
:104AD000FDF7F0FC4FF400710220FDF7EBFC00E065
:104AE00050E041F230010320FDF7E4FC08210A20E8
:104AF000FDF7E0FC00210C20FDF7DCFC20210E205E
:104B0000FDF7D8FC00210F20FDF7D4FC0021202068
:104B1000FDF7D0FC00212120FDF7CCFC3D212A200F
:104B2000FDF7C8FC1420FCF79BFF2D212920FDF781
:104B3000C1FC00215020FDF7BDFC4DF2EF015120DA
:104B4000FDF7B8FC00215220FDF7B4FC40F23F1104
:104B50005320FDF7AFFC00216120FDF7ABFC0021E5
:104B60006A20FDF7A7FC4FF440719220FDF7A2FCEC
:104B700005219320FDF79EFC4FF480710720FDF77F
:104B800099FC3EE294488088A0F5094189397DD19D
:104B900001210020FDF78EFC4AF6A4010320FDF759
:104BA00089FC00210C20FDF785FC40F60C010D204E
:104BB000FDF780FC4FF42C510E20FDF77BFCB0215B
:104BC0001E20FDF777FC42F63F310120FDF772FC15
:104BD0004FF4C0610220FDF76DFC00211020FDF7AD
:104BE00069FC46F278011120FDF764FC00210520E4
:104BF000FDF760FC00210620FDF75CFC4EF61C7101
:104C00001620FDF757FC03211720FDF753FC40F257
:104C100033210720FDF74EFC00210B20FDF74AFC55
:104C200000210F20FDF746FC00214120FDF742FC4A
:104C300000214220FDF73EFC00214820FDF73AFC10
:104C400040F23F114920FDF735FC00214A20FDF7D5
:104C500031FC00214B20FDF72DFC4FF46F41442027
:104C6000FDF728FC00214520FDF724FC40F23F1110
:104C70004620FDF71FFC40F207713020FDF71AFCBB
:104C80004FF401713120FDF715FC00E03DE04FF4D9
:104C900001713220FDF70EFC40F202513320FDF786
:104CA00009FC40F207513420FDF704FC4FF4017178
:104CB0003520FDF7FFFB4FF401713620FDF7FAFBBD
:104CC00040F202513720FDF7F5FB40F202313A2065
:104CD000FDF7F0FB40F202313B20FDF7EBFB00213A
:104CE0002320FDF7E7FB00212420FDF7E3FB4FF431
:104CF00000412520FDF7DEFB00214F20FDF7DAFB08
:104D000000214E20FDF7D6FB7BE133488088A0F5DB
:104D10008A4131397ED101210020FDF7CBFB0A20E9
:104D2000FCF79EFE41F228611020FDF7C3FB0E2127
:104D30001220FDF7BFFB40F639211320FDF7BAFB27
:104D40000A20FCF78DFE40211120FDF7B3FB502116
:104D50001520FDF7AFFB0A20FCF782FE1E21122072
:104D6000FDF7A8FB0A20FCF77BFE4FF4B1511020A1
:104D7000FDF7A0FB42F639211320FDF79BFB0A202B
:104D8000FCF76EFE4FF480710120FDF793FB4FF4AA
:104D900040710220FDF78EFB41F238010320FDF740
:104DA00089FB40F202210820FDF784FB08210A203C
:104DB000FDF780FB00213020FDF77CFB40F2024133
:104DC0003120FDF777FB4FF483713220FDF772FB42
:104DD00040F20351332001E048020020FDF76AFB56
:104DE0004FF482713420FDF765FB40F2013135202C
:104DF000FDF760FB40F207713620FDF75BFB40F2E8
:104E000005313720FDF756FB4FF402713820FDF7CE
:104E100051FB00E03EE040F60B713920FDF74AFB04
:104E200002214120FDF746FB4FF41C516020FDF7A5
:104E300041FB01216120FDF73DFB4FF404719020FF
:104E4000FDF738FB4FF485719220FDF733FB042109
:104E50009320FDF72FFB4FF48071A020FDF72AFB74
:104E600001210720FDF726FB21210720FDF722FB6A
:104E700023210720FDF71EFB33210720FDF71AFB36
:104E800040F233110720FDF715FB0021A020FDF7AC
:104E900011FBB6E0F8488088A0F58A4135397ED10B
:104EA00030211520FDF706FB10219A20FDF702FBAB
:104EB00020211120FDF7FEFA43F228411020FDF7D2
:104EC000F9FA02211220FDF7F5FA41F23801132018
:104ED000FDF7F0FA2820FCF7C3FD12210846FDF784
:104EE000E9FA2820FCF7BCFD43F220411020FDF731
:104EF000E1FA43F238011320FDF7DCFA4620FCF713
:104F0000AFFD00213020FDF7D5FA40F202413120FB
:104F1000FDF7D0FA40F207313220FDF7CBFA4FF41B
:104F200041713320FDF7C6FA04213420FDF7C2FA9F
:104F300040F201413520FDF7BDFA40F207713620FD
:104F4000FDF7B8FA40F205313720FDF7B3FA4FF418
:104F5000C2613820FDF7AEFA4FF4C2613920FDF787
:104F6000A9FA4FF480710120FDF7A4FA4FF44071C3
:104F70000220FDF79FFA41F230010320FDF79AFA73
:104F800040F608010820FDF795FA08210A20FDF7F0
:104F900091FA4FF41C516020FDF78CFA00E030E0EC
:104FA00001216120FDF786FA4FF49F719020FDF7F3
:104FB00081FA4FF480719220FDF77CFA4FF48071F2
:104FC0009320FDF777FA4FF44051A020FDF772FAD5
:104FD0001021A320FDF76EFA01210720FDF76AFAE0
:104FE00021210720FDF766FA23210720FDF762FA49
:104FF00033210720FDF75EFA40F233110720FDF759
:1050000059FA0020FDF7F5FC01209C4908604FF695
:10501000FF70FDF766FD10BD2DE9F05F05460E46F9
:1050200017469846DDF828A04FF0000B781B401C6F
:105030001FFA80FB34461EE02146284602F044FA5F
:10504000FDF756FA4FF0000911E04FF480708C49DB
:105050000861400048618B48C0F80CAC8020486172
:1050600008618000086109F101001FFA80F9D94543
:10507000EBDB601C84B24445DEDDBDE8F09F2DE92A
:10508000FF4F85B081468A46002004900390079820
:10509000A0EB09050898A0EB0A06CDF80890CDF81A
:1050A00004A0002D01DD012705E00DB9002702E075
:1050B0004FF0FF376D42002E02DD4FF0010806E091
:1050C00016B94FF0000802E04FF0FF387642B542C3
:1050D00001DD2C4600E034464FF0000B21E0019842
:1050E00081B2029880B2FDF768FC049828440490CD
:1050F0000398304403900498A04205DD0498001BF7
:1051000004900298384402900398A04205DD039869
:10511000001B03900198404401900BF101001FFA1D
:1051200080FB601C8345DADD09B0BDE8F08F2DE916
:10513000F04104460D4616461F462B463246294688
:105140002046FFF79CFF3B46224629462046FFF7B4
:1051500096FF3B46324639462046FFF790FF3B46D6
:10516000324629463046FFF78AFFBDE8F0812DE937
:10517000F04706460F469046002445460320A0EB24
:10518000480948E03A1B91B2721B90B2FDF715FC3A
:105190003A1B91B2721990B2FDF70FFC7A1991B2D5
:1051A000321B90B2FDF709FC3A1B91B2721B90B210
:1051B000FDF703FC7A1B91B2321B90B2FDF7FDFBA9
:1051C0003A1991B2721990B2FDF7F7FB7A1B91B2BE
:1051D000321990B2FDF7F1FB7A1991B2321990B2FF
:1051E000FDF7EBFB3A1991B2721B90B2FDF7E5FBAC
:1051F000641CB9F1000F03DAA000801D814404E0B3
:10520000601B80000A3081446D1E7A1991B23219F8
:1052100090B2FDF7D2FBAC42B4DDBDE8F0872DE9DA
:10522000FF4F81B005460F4690461E460097164830
:10523000B0F80090A8F1200000F0FF080E98D0B957
:10524000002459E00C2E07D108EB48000F4901EB70
:10525000800010F804A004E00D4800EB081010F8DE
:1052600004A04FF0000B41E01AF0800F12D0064866
:10527000A0F8009012E042E048020020A80122427B
:10528000001001400000014014000020508600087A
:10529000C48A0008B4480088B449088039462846C2
:1052A000FDF78BFB4FEA4A604FEA106A781C87B221
:1052B000AF480088A84205DCAC48A0F8009005B0D3
:1052C000BDE8F08F0098381AB0420BD1009F681CDF
:1052D00085B2A7480088A84203DCA448A0F8009043
:1052E000EDE706E00BF1010000F0FF0BBBF1080F4A
:1052F000BADB00BF601CC4B2B442A3DB44E00024AC
:1053000040E00C2E07D108EB48009A4901EB8000E1
:1053100010F804A004E0984800EB081010F804A06E
:105320004FF0000B28E01AF0800F03D039462846D2
:10533000FDF743FB4FEA4A604FEA106A781C87B2D8
:105340008B484088A84203DC8848A0F80090B6E764
:105350000098381AB0420BD1009F681C85B284486F
:105360000088A84203DC8148A0F80090A7E706E087
:105370000BF1010000F0FF0BBBF1080FD3DB00BF06
:10538000601CC4B2B442BCDB7848A0F8009000BFF7
:1053900095E710B50246012000E050430B00A1F153
:1053A0000104E1B2F9D110BD2DE9FF4F81B00746EC
:1053B00091461E460E9D4FF0000A00243BE0301B34
:1053C000401EC1B20A20FFF7E4FFB9FBF0F00A214A
:1053D000B0FBF1F201FB120000F0FF08BAF1000F80
:1053E00016D1701EA04213DDB8F1000F0ED10023BC
:1053F000AB4605EBD571491001FB047188B20093EF
:105400002B4620220299FFF70AFF12E04FF0010A13
:105410000023AB4605EBD571491001FB047188B23E
:1054200000932B4608F13001CAB20299FFF7F7FE4C
:1054300000BF601CC4B2B442C1DB05B0BDE8F08F50
:105440002DE9FF4F83B0064692461F46DDE910481E
:105450000020029000254FE0781B401EC1B20A20B8
:10546000FFF797FFBAFBF0F00A21B0FBF1F201FB66
:10547000120000F0FF09029850BB781EA84227DDF9
:10548000B9F1000F22D118F0800F0FD008F00103FE
:10549000A34604EBD471491001FB056188B2009367
:1054A000234630220499FFF7BAFE0EE008F001030C
:1054B000A34604EBD471491001FB056188B2009347
:1054C000234620220499FFF7AAFE13E00120029050
:1054D00008F00103A34604EBD471491001FB0561F8
:1054E00088B20093234609F13001CAB20499FFF74C
:1054F00096FE00BF681CC5B2BD42ADDB07B0BDE87B
:10550000F08F2DE9F84F04460D4690469946DDE9A7
:105510000A6704F0FF0A08EB04001FFA80F809EBA1
:1055200005001FFA80F916E0444502DB5446A8192D
:1055300085B24D4500DB14E0002300933A783346F2
:1055400029462046FFF76BFE304606EBD67104EB8A
:1055500061018CB27F1C38787E2802DC38782028E4
:10556000E2DA00BFBDE8F88F16000020140000202A
:105570004802002050860008C48A000870B5002543
:10558000C848806940F00400C649886108468069BF
:1055900040F008008861C4480068C44900EA01007E
:1055A000C349C1F80008C0480068C24940EA010088
:1055B000BF49C1F800080846D0F80C0840F01000B8
:1055C000C1F80C080846D0F80C0840F00300C1F8F8
:1055D0000C08B9480068B94900EA0100B449C1F8AB
:1055E0000408B5480068B64940EA0100B049C1F86E
:1055F00004080846D0F80C0840F44040C1F80C08F4
:105600000846D0F80C0840F4C050C1F80C084FF020
:105610000100FCF76BFB00F057F98021122000F02D
:1056200044FA08B1012070BD3220FCF719FA0B20B2
:1056300000F05AFA0446732C01D00220F3E70A2046
:1056400000F052FA0446762C01D00220EBE7002548
:105650000DE09C4A02EB450251789A4A12F8150077
:1056600000F023FA0220FCF7FBF9681C85B2762DC6
:10567000EFD30020D7E72DE9F0410446E7250026C7
:105680000027012C06D0022C08D0032C0AD0042CB1
:1056900010D10BE0E5255A265C270BE0E5255826BE
:1056A000602707E0E52584264C2703E0E5259626BC
:1056B000402700BF00BF2946132000F0F6F931460D
:1056C000012000F0F2F93946022000F0EEF9BDE8C1
:1056D000F0812DE9F0410446802522265E2734B171
:1056E000012C08D0032C0AD0042C10D10BE040254B
:1056F00011262F270BE066251B264B2707E099254F
:105700002826712703E0C02533268D2700BF00BF60
:1057100029464F2000F0C9F92946502000F0C5F96C
:105720000021512000F0C1F93146522000F0BDF9AE
:105730003946532000F0B9F92946542000F0B5F954
:105740009E21582000F0B1F9BDE8F08170B5044603
:10575000002534B1012C06D0032C06D0042C08D12E
:1057600005E0B02505E0982503E0182501E0302587
:1057700000BF00BF2946552000F097F970BD70B5F5
:105780000446402534B1012C06D0032C06D0042C4D
:1057900008D105E0302505E0382503E0502501E07B
:1057A000602500BF00BF2946562000F07EF970BD7D
:1057B0002DE9F04104460425C0268027072C1DD280
:1057C000DFE804F01C04080C1014180024258026BF
:1057D000802713E01425802680270FE01425C0269B
:1057E00080270BE014254026402707E0142580265B
:1057F000C02703E01425A026402700BF00BF29468C
:105800003A2000F052F93146682000F04EF939464E
:10581000672000F04AF9BDE8F0812DE9F047054620
:105820000E469046994605EB48001FFA80FA06EBB3
:10583000490087B2B7F5447F02DDA7F5447087B20F
:10584000032000F051F9044604F0F0040AF00301CB
:10585000284661F39F0004432146032000F025F908
:10586000C5F38701192000F020F9CAF387011A2037
:1058700000F01BF9322000F037F9044604F0C004B0
:1058800007F00701304661F3DF000443C6F3C701A8
:10589000172000F00AF9C7F3C701182000F005F936
:1058A000BDE8F087001002400008014000FFF0FF53
:1058B000000001403300030004080140FF0FF00026
:1058C00000300383B49000089B48806940F01000CA
:1058D000994988619948006820F47F0097490860D9
:1058E0000846006840F44C1008600846C06840F064
:1058F0003000C8600846006820F470000860084660
:10590000006840F440100860704710B501208C49D1
:1059100008608C49C1F890014FF03200FCF7BBF8E9
:105920000020874908604FF03200FCF7B4F80020EF
:105930008449C1F8900110BD10B50020804908606D
:105940004FF03200FCF7A7F801207E49C1F8900122
:105950003220FCF7A0F80120794908604FF03200AE
:10596000FCF799F810BD10B53220FCF794F801202F
:10597000734908607349C1F890014FF03200FCF799
:105980008AF80020704908604FF03200FCF783F875
:1059900000206C49C1F894013220FCF77CF810BD5E
:1059A00070B5044600261BE014F0800F03D00120E0
:1059B0006349086002E00020614908606006040E47
:1059C0003220FCF768F801205F4908604FF0320090
:1059D000FCF761F800205B49C1F89001701CC6B269
:1059E000082EE1DB5548006820F470005349086038
:1059F0000846006840F4000008603220FCF74BF8CD
:105A00000120514908604FF03200FCF744F84D483E
:105A1000D0F8140108B1012500E0002500204A4912
:105A200008604648006820F4700044490860084651
:105A3000006840F440100860284670BD70B500242E
:105A40003E48006820F470003C4908600846006841
:105A500040F400000860082518E03220FCF71BF82D
:105A60000120394908604FEA44604FEA1064354824
:105A7000D0F8140108B1601CC4B23220FCF70BF856
:105A8000002031490860A5F10100C5B2002DE4DC19
:105A90002A48006820F47000284908600846006819
:105AA00040F440100860204670BD70B505460C46B5
:105AB0000026FFF72AFF4220FFF772FF00B1012600
:105AC0006420FBF7E8FF2846FFF76AFF00B10126D4
:105AD0006420FBF7E0FF2046FFF762FF00B10126DC
